{
  "contractName": "Tickets",
  "abi": [
    {
      "inputs": [],
      "payable": false,
      "stateMutability": "nonpayable",
      "type": "constructor"
    },
    {
      "constant": true,
      "inputs": [],
      "name": "owner",
      "outputs": [
        {
          "internalType": "address",
          "name": "",
          "type": "address"
        }
      ],
      "payable": false,
      "stateMutability": "view",
      "type": "function"
    },
    {
      "constant": true,
      "inputs": [
        {
          "internalType": "uint256",
          "name": "",
          "type": "uint256"
        }
      ],
      "name": "tickets",
      "outputs": [
        {
          "internalType": "address",
          "name": "owner",
          "type": "address"
        },
        {
          "internalType": "uint256",
          "name": "price",
          "type": "uint256"
        }
      ],
      "payable": false,
      "stateMutability": "view",
      "type": "function"
    },
    {
      "constant": false,
      "inputs": [
        {
          "internalType": "uint256",
          "name": "_index",
          "type": "uint256"
        }
      ],
      "name": "buyTicket",
      "outputs": [],
      "payable": true,
      "stateMutability": "payable",
      "type": "function"
    }
  ],
  "bytecode": "0x6080604052336000806101000a81548173ffffffffffffffffffffffffffffffffffffffff021916908373ffffffffffffffffffffffffffffffffffffffff16021790555034801561005057600080fd5b5060008090505b600a8110156100e25767016345785d8a0000600182600a811061007657fe5b60020201600101819055506000600182600a811061009057fe5b6002020160000160006101000a81548173ffffffffffffffffffffffffffffffffffffffff021916908373ffffffffffffffffffffffffffffffffffffffff1602179055508080600101915050610057565b506102df806100f26000396000f3fe6080604052600436106100345760003560e01c806350b447121461003957806367dd74ca146100bb5780638da5cb5b146100e9575b600080fd5b34801561004557600080fd5b506100726004803603602081101561005c57600080fd5b8101908080359060200190929190505050610140565b604051808373ffffffffffffffffffffffffffffffffffffffff1673ffffffffffffffffffffffffffffffffffffffff1681526020018281526020019250505060405180910390f35b6100e7600480360360208110156100d157600080fd5b8101908080359060200190929190505050610187565b005b3480156100f557600080fd5b506100fe610285565b604051808273ffffffffffffffffffffffffffffffffffffffff1673ffffffffffffffffffffffffffffffffffffffff16815260200191505060405180910390f35b600181600a811061014d57fe5b600202016000915090508060000160009054906101000a900473ffffffffffffffffffffffffffffffffffffffff16908060010154905082565b600a81108015610198575060008110155b6101a157600080fd5b600073ffffffffffffffffffffffffffffffffffffffff16600182600a81106101c657fe5b6002020160000160009054906101000a900473ffffffffffffffffffffffffffffffffffffffff1673ffffffffffffffffffffffffffffffffffffffff161461020e57600080fd5b600181600a811061021b57fe5b600202016001015434101561022f57600080fd5b33600182600a811061023d57fe5b6002020160000160006101000a81548173ffffffffffffffffffffffffffffffffffffffff021916908373ffffffffffffffffffffffffffffffffffffffff16021790555050565b6000809054906101000a900473ffffffffffffffffffffffffffffffffffffffff168156fea265627a7a723158206280907e310be650d40c0226678b2628f3097e812f18860d00f4f782fe8e75f164736f6c63430005100032",
  "source": "// SPDX-License-Identifier: MIT\npragma solidity >=0.4.22 <0.9.0;\n\ncontract Tickets {\n    address public owner = msg.sender;\n    uint256 constant TOTAL_TICKETS = 10;\n    struct Ticket {\n        address owner;\n        uint256 price;\n    }\n\n    Ticket[TOTAL_TICKETS] public tickets;\n\n    constructor() public {\n        for(uint i=0;i<TOTAL_TICKETS;i++){\n            tickets[i].price=1e17; // 0.1 ETH\n            tickets[i].owner=address(0x0);\n        }\n    }\n\n    function buyTicket(uint256 _index) public payable{\n        require(_index <TOTAL_TICKETS && _index>=0);\n        require(tickets[_index].owner== address(0x0));\n        require(msg.value >= tickets[_index].price);\n        tickets[_index].owner= msg.sender;\n    }\n}\n",
  "sourcePath": "/media/ddos/Programming/github/blockchain/ticket_booth/contracts/Tickets.sol",
  "compiler": {
    "name": "solc",
    "version": "0.5.16+commit.9c3226ce.Emscripten.clang"
  },
  "schemaVersion": "3.4.10",
  "updatedAt": "2022-10-08T16:46:02.521Z",
  "networkType": "ethereum",
  "devdoc": {
    "methods": {}
  },
  "userdoc": {
    "methods": {}
  }
}