{
  "contractName": "wallet",
  "abi": [
    {
      "inputs": [],
      "stateMutability": "payable",
      "type": "constructor"
    },
    {
      "inputs": [],
      "name": "owner",
      "outputs": [
        {
          "internalType": "address",
          "name": "",
          "type": "address"
        }
      ],
      "stateMutability": "view",
      "type": "function"
    },
    {
      "inputs": [
        {
          "internalType": "uint256",
          "name": "i",
          "type": "uint256"
        }
      ],
      "name": "getHistory",
      "outputs": [
        {
          "internalType": "string",
          "name": "",
          "type": "string"
        }
      ],
      "stateMutability": "view",
      "type": "function"
    },
    {
      "inputs": [
        {
          "internalType": "address",
          "name": "receiver",
          "type": "address"
        },
        {
          "internalType": "uint256",
          "name": "amt",
          "type": "uint256"
        }
      ],
      "name": "sendMoney",
      "outputs": [],
      "stateMutability": "payable",
      "type": "function"
    },
    {
      "inputs": [],
      "name": "checkBalance",
      "outputs": [
        {
          "internalType": "uint256",
          "name": "",
          "type": "uint256"
        }
      ],
      "stateMutability": "view",
      "type": "function"
    }
  ],
  "bytecode": "0x6080604052336000806101000a81548173ffffffffffffffffffffffffffffffffffffffff021916908373ffffffffffffffffffffffffffffffffffffffff16021790555034600260008060009054906101000a900473ffffffffffffffffffffffffffffffffffffffff1673ffffffffffffffffffffffffffffffffffffffff1673ffffffffffffffffffffffffffffffffffffffff168152602001908152602001600020819055506112e8806100b86000396000f3fe60806040526004361061003f5760003560e01c80638da5cb5b14610044578063c71daccb1461006f578063c8691b2a1461009a578063ee4ae2c9146100d7575b600080fd5b34801561005057600080fd5b506100596100f3565b60405161006691906108fc565b60405180910390f35b34801561007b57600080fd5b50610084610117565b6040516100919190610930565b60405180910390f35b3480156100a657600080fd5b506100c160048036038101906100bc919061097c565b61015e565b6040516100ce9190610a39565b60405180910390f35b6100f160048036038101906100ec9190610a87565b610215565b005b60008054906101000a900473ffffffffffffffffffffffffffffffffffffffff1681565b6000600260003373ffffffffffffffffffffffffffffffffffffffff1673ffffffffffffffffffffffffffffffffffffffff16815260200190815260200160002054905090565b60606001828154811061017457610173610ac7565b5b9060005260206000209060050201600401805461019090610b25565b80601f01602080910402602001604051908101604052809291908181526020018280546101bc90610b25565b80156102095780601f106101de57610100808354040283529160200191610209565b820191906000526020600020905b8154815290600101906020018083116101ec57829003601f168201915b50505050509050919050565b600260003373ffffffffffffffffffffffffffffffffffffffff1673ffffffffffffffffffffffffffffffffffffffff16815260200190815260200160002054811115610297576040517f08c379a000000000000000000000000000000000000000000000000000000000815260040161028e90610bc8565b60405180910390fd5b80600260003373ffffffffffffffffffffffffffffffffffffffff1673ffffffffffffffffffffffffffffffffffffffff16815260200190815260200160002060008282546102e69190610c17565b9250508190555080600260008473ffffffffffffffffffffffffffffffffffffffff1673ffffffffffffffffffffffffffffffffffffffff168152602001908152602001600020600082825461033c9190610c4b565b925050819055506000429050600061036b3373ffffffffffffffffffffffffffffffffffffffff16601461051f565b905060006103908573ffffffffffffffffffffffffffffffffffffffff16601461051f565b905060008261039e8661075b565b836103b56103e8886103b09190610c7f565b61075b565b6040516020016103c89493929190610e2d565b604051602081830303815290604052905060006040518060a001604052803373ffffffffffffffffffffffffffffffffffffffff1681526020018873ffffffffffffffffffffffffffffffffffffffff168152602001878152602001868152602001838152509050600181908060018154018082558091505060019003906000526020600020906005020160009091909190915060008201518160000160006101000a81548173ffffffffffffffffffffffffffffffffffffffff021916908373ffffffffffffffffffffffffffffffffffffffff16021790555060208201518160010160006101000a81548173ffffffffffffffffffffffffffffffffffffffff021916908373ffffffffffffffffffffffffffffffffffffffff160217905550604082015181600201556060820151816003015560808201518160040190816105139190611072565b50505050505050505050565b6060600060028360026105329190610c7f565b61053c9190610c4b565b67ffffffffffffffff81111561055557610554610e97565b5b6040519080825280601f01601f1916602001820160405280156105875781602001600182028036833780820191505090505b5090507f3000000000000000000000000000000000000000000000000000000000000000816000815181106105bf576105be610ac7565b5b60200101907effffffffffffffffffffffffffffffffffffffffffffffffffffffffffffff1916908160001a9053507f78000000000000000000000000000000000000000000000000000000000000008160018151811061062357610622610ac7565b5b60200101907effffffffffffffffffffffffffffffffffffffffffffffffffffffffffffff1916908160001a905350600060018460026106639190610c7f565b61066d9190610c4b565b90505b600181111561070d577f3031323334353637383961626364656600000000000000000000000000000000600f8616601081106106af576106ae610ac7565b5b1a60f81b8282815181106106c6576106c5610ac7565b5b60200101907effffffffffffffffffffffffffffffffffffffffffffffffffffffffffffff1916908160001a905350600485901c94508061070690611144565b9050610670565b5060008414610751576040517f08c379a0000000000000000000000000000000000000000000000000000000008152600401610748906111b9565b60405180910390fd5b8091505092915050565b6060600082036107a2576040518060400160405280600181526020017f300000000000000000000000000000000000000000000000000000000000000081525090506108b6565b600082905060005b600082146107d45780806107bd906111d9565b915050600a826107cd9190611250565b91506107aa565b60008167ffffffffffffffff8111156107f0576107ef610e97565b5b6040519080825280601f01601f1916602001820160405280156108225781602001600182028036833780820191505090505b5090505b600085146108af5760018261083b9190610c17565b9150600a8561084a9190611281565b60306108569190610c4b565b60f81b81838151811061086c5761086b610ac7565b5b60200101907effffffffffffffffffffffffffffffffffffffffffffffffffffffffffffff1916908160001a905350600a856108a89190611250565b9450610826565b8093505050505b919050565b600073ffffffffffffffffffffffffffffffffffffffff82169050919050565b60006108e6826108bb565b9050919050565b6108f6816108db565b82525050565b600060208201905061091160008301846108ed565b92915050565b6000819050919050565b61092a81610917565b82525050565b60006020820190506109456000830184610921565b92915050565b600080fd5b61095981610917565b811461096457600080fd5b50565b60008135905061097681610950565b92915050565b6000602082840312156109925761099161094b565b5b60006109a084828501610967565b91505092915050565b600081519050919050565b600082825260208201905092915050565b60005b838110156109e35780820151818401526020810190506109c8565b60008484015250505050565b6000601f19601f8301169050919050565b6000610a0b826109a9565b610a1581856109b4565b9350610a258185602086016109c5565b610a2e816109ef565b840191505092915050565b60006020820190508181036000830152610a538184610a00565b905092915050565b610a64816108db565b8114610a6f57600080fd5b50565b600081359050610a8181610a5b565b92915050565b60008060408385031215610a9e57610a9d61094b565b5b6000610aac85828601610a72565b9250506020610abd85828601610967565b9150509250929050565b7f4e487b7100000000000000000000000000000000000000000000000000000000600052603260045260246000fd5b7f4e487b7100000000000000000000000000000000000000000000000000000000600052602260045260246000fd5b60006002820490506001821680610b3d57607f821691505b602082108103610b5057610b4f610af6565b5b50919050565b7f6572726f723a20696e73756666696369656e742066756e647320696e2061636360008201527f6f756e7400000000000000000000000000000000000000000000000000000000602082015250565b6000610bb26024836109b4565b9150610bbd82610b56565b604082019050919050565b60006020820190508181036000830152610be181610ba5565b9050919050565b7f4e487b7100000000000000000000000000000000000000000000000000000000600052601160045260246000fd5b6000610c2282610917565b9150610c2d83610917565b9250828203905081811115610c4557610c44610be8565b5b92915050565b6000610c5682610917565b9150610c6183610917565b9250828201905080821115610c7957610c78610be8565b5b92915050565b6000610c8a82610917565b9150610c9583610917565b9250828202610ca381610917565b91508282048414831517610cba57610cb9610be8565b5b5092915050565b600081905092915050565b6000610cd7826109a9565b610ce18185610cc1565b9350610cf18185602086016109c5565b80840191505092915050565b7f2073656e7420616e20616d6f756e74206f662000000000000000000000000000600082015250565b6000610d33601383610cc1565b9150610d3e82610cfd565b601382019050919050565b7f20746f2000000000000000000000000000000000000000000000000000000000600082015250565b6000610d7f600483610cc1565b9150610d8a82610d49565b600482019050919050565b7f2061742000000000000000000000000000000000000000000000000000000000600082015250565b6000610dcb600483610cc1565b9150610dd682610d95565b600482019050919050565b7f207365636f6e6473000000000000000000000000000000000000000000000000600082015250565b6000610e17600883610cc1565b9150610e2282610de1565b600882019050919050565b6000610e398287610ccc565b9150610e4482610d26565b9150610e508286610ccc565b9150610e5b82610d72565b9150610e678285610ccc565b9150610e7282610dbe565b9150610e7e8284610ccc565b9150610e8982610e0a565b915081905095945050505050565b7f4e487b7100000000000000000000000000000000000000000000000000000000600052604160045260246000fd5b60008190508160005260206000209050919050565b60006020601f8301049050919050565b600082821b905092915050565b600060088302610f287fffffffffffffffffffffffffffffffffffffffffffffffffffffffffffffffff82610eeb565b610f328683610eeb565b95508019841693508086168417925050509392505050565b6000819050919050565b6000610f6f610f6a610f6584610917565b610f4a565b610917565b9050919050565b6000819050919050565b610f8983610f54565b610f9d610f9582610f76565b848454610ef8565b825550505050565b600090565b610fb2610fa5565b610fbd818484610f80565b505050565b5b81811015610fe157610fd6600082610faa565b600181019050610fc3565b5050565b601f82111561102657610ff781610ec6565b61100084610edb565b8101602085101561100f578190505b61102361101b85610edb565b830182610fc2565b50505b505050565b600082821c905092915050565b60006110496000198460080261102b565b1980831691505092915050565b60006110628383611038565b9150826002028217905092915050565b61107b826109a9565b67ffffffffffffffff81111561109457611093610e97565b5b61109e8254610b25565b6110a9828285610fe5565b600060209050601f8311600181146110dc57600084156110ca578287015190505b6110d48582611056565b86555061113c565b601f1984166110ea86610ec6565b60005b82811015611112578489015182556001820191506020850194506020810190506110ed565b8683101561112f578489015161112b601f891682611038565b8355505b6001600288020188555050505b505050505050565b600061114f82610917565b91506000820361116257611161610be8565b5b600182039050919050565b7f537472696e67733a20686578206c656e67746820696e73756666696369656e74600082015250565b60006111a36020836109b4565b91506111ae8261116d565b602082019050919050565b600060208201905081810360008301526111d281611196565b9050919050565b60006111e482610917565b91507fffffffffffffffffffffffffffffffffffffffffffffffffffffffffffffffff820361121657611215610be8565b5b600182019050919050565b7f4e487b7100000000000000000000000000000000000000000000000000000000600052601260045260246000fd5b600061125b82610917565b915061126683610917565b92508261127657611275611221565b5b828204905092915050565b600061128c82610917565b915061129783610917565b9250826112a7576112a6611221565b5b82820690509291505056fea2646970667358221220a6092d8a215bfcd4dd2d649be6954b1d73760e65f55f67d0d9f307928d48aac364736f6c63430008110033",
  "immutableReferences": {},
  "source": "//SPDX-License-Identifier: MIT\npragma solidity >=0.4.16 <0.9.0;\n\nimport \"@openzeppelin/contracts/utils/Strings.sol\";\n\ncontract wallet {\n    address public owner;\n    Transaction[] history;\n    mapping(address => uint256) balance_at;\n\n    struct Transaction {\n        address sender;\n        address receiver;\n        uint256 amount;\n        uint256 timestamp;\n        string message;\n    }\n\n    constructor() public payable {\n        owner = msg.sender;\n        balance_at[owner] = msg.value;\n    }\n\n    // modifier onlyOwner(){\n    //     require(msg.sender == owner, \"error: only the owner is allowed to call this function\");\n    //     _;\n    // }\n\n    function getHistory(uint256 i) public view returns (string memory) {\n        return history[i].message;\n    }\n\n    function sendMoney(address receiver, uint256 amt) public payable {\n        require(\n            amt <= balance_at[msg.sender],\n            \"error: insufficient funds in account\"\n        );\n\n        balance_at[msg.sender] -= amt;\n        balance_at[receiver] += amt;\n\n        //adding to logs\n        uint256 time = block.timestamp;\n        string memory sender_addr = Strings.toHexString(\n            uint256(uint160(msg.sender)),\n            20\n        );\n        string memory receiver_addr = Strings.toHexString(\n            uint256(uint160(receiver)),\n            20\n        );\n        string memory message = string(\n            abi.encodePacked(\n                sender_addr,\n                \" sent an amount of \",\n                Strings.toString(amt),\n                \" to \",\n                receiver_addr,\n                \" at \",\n                Strings.toString(time * 1000),\n                \" seconds\"\n            )\n        );\n        Transaction memory tr = Transaction(\n            msg.sender,\n            receiver,\n            amt,\n            time,\n            message\n        );\n        history.push(tr);\n    }\n\n    function checkBalance() public view returns (uint256) {\n        return balance_at[msg.sender];\n    }\n}",
  "sourcePath": "E:\\github\\blockchain\\wallet\\contracts\\Wallet.sol",
  "compiler": {
    "name": "solc",
    "version": "0.8.17+commit.8df45f5f.Emscripten.clang"
  },
  "schemaVersion": "3.4.10",
  "updatedAt": "2022-10-14T08:33:36.078Z",
  "devdoc": {
    "kind": "dev",
    "methods": {},
    "version": 1
  },
  "userdoc": {
    "kind": "user",
    "methods": {},
    "version": 1
  }
}